{
  "_format": "hh-sol-artifact-1",
  "contractName": "helloWorld",
  "sourceName": "contracts/helloWorld.sol",
  "abi": [
    {
      "inputs": [
        {
          "internalType": "string",
          "name": "_name",
          "type": "string"
        }
      ],
      "stateMutability": "nonpayable",
      "type": "constructor"
    },
    {
      "inputs": [],
      "name": "HelloWorld",
      "outputs": [
        {
          "internalType": "string",
          "name": "",
          "type": "string"
        }
      ],
      "stateMutability": "view",
      "type": "function"
    },
    {
      "inputs": [],
      "name": "getFunc",
      "outputs": [
        {
          "internalType": "string",
          "name": "",
          "type": "string"
        }
      ],
      "stateMutability": "view",
      "type": "function"
    },
    {
      "inputs": [
        {
          "internalType": "string",
          "name": "_name",
          "type": "string"
        }
      ],
      "name": "setFunc",
      "outputs": [],
      "stateMutability": "nonpayable",
      "type": "function"
    }
  ],
  "bytecode": "0x60806040526040518060400160405280600581526020017f48656c6c6f0000000000000000000000000000000000000000000000000000008152506000908051906020019062000051929190620000a5565b503480156200005f57600080fd5b5060405162000927380380620009278339818101604052810190620000859190620001c7565b80600190805190602001906200009d929190620000a5565b50506200037c565b828054620000b390620002a1565b90600052602060002090601f016020900481019282620000d7576000855562000123565b82601f10620000f257805160ff191683800117855562000123565b8280016001018555821562000123579182015b828111156200012257825182559160200191906001019062000105565b5b50905062000132919062000136565b5090565b5b808211156200015157600081600090555060010162000137565b5090565b60006200016c620001668462000235565b6200020c565b9050828152602081018484840111156200018557600080fd5b620001928482856200026b565b509392505050565b600082601f830112620001ac57600080fd5b8151620001be84826020860162000155565b91505092915050565b600060208284031215620001da57600080fd5b600082015167ffffffffffffffff811115620001f557600080fd5b62000203848285016200019a565b91505092915050565b6000620002186200022b565b9050620002268282620002d7565b919050565b6000604051905090565b600067ffffffffffffffff8211156200025357620002526200033c565b5b6200025e826200036b565b9050602081019050919050565b60005b838110156200028b5780820151818401526020810190506200026e565b838111156200029b576000848401525b50505050565b60006002820490506001821680620002ba57607f821691505b60208210811415620002d157620002d06200030d565b5b50919050565b620002e2826200036b565b810181811067ffffffffffffffff821117156200030457620003036200033c565b5b80604052505050565b7f4e487b7100000000000000000000000000000000000000000000000000000000600052602260045260246000fd5b7f4e487b7100000000000000000000000000000000000000000000000000000000600052604160045260246000fd5b6000601f19601f8301169050919050565b61059b806200038c6000396000f3fe608060405234801561001057600080fd5b50600436106100415760003560e01c80632dc4ac48146100465780637fffb7bd1461006257806388fbc48b14610080575b600080fd5b610060600480360381019061005b9190610280565b61009e565b005b61006a6100b8565b604051610077919061039d565b60405180910390f35b6100886100e3565b604051610095919061039d565b60405180910390f35b80600190805190602001906100b4929190610175565b5050565b6060600060016040516020016100cf929190610379565b604051602081830303815290604052905090565b6060600180546100f290610493565b80601f016020809104026020016040519081016040528092919081815260200182805461011e90610493565b801561016b5780601f106101405761010080835404028352916020019161016b565b820191906000526020600020905b81548152906001019060200180831161014e57829003601f168201915b5050505050905090565b82805461018190610493565b90600052602060002090601f0160209004810192826101a357600085556101ea565b82601f106101bc57805160ff19168380011785556101ea565b828001600101855582156101ea579182015b828111156101e95782518255916020019190600101906101ce565b5b5090506101f791906101fb565b5090565b5b808211156102145760008160009055506001016101fc565b5090565b600061022b610226846103e4565b6103bf565b90508281526020810184848401111561024357600080fd5b61024e848285610451565b509392505050565b600082601f83011261026757600080fd5b8135610277848260208601610218565b91505092915050565b60006020828403121561029257600080fd5b600082013567ffffffffffffffff8111156102ac57600080fd5b6102b884828501610256565b91505092915050565b60006102cc8261042a565b6102d68185610435565b93506102e6818560208601610460565b6102ef81610554565b840191505092915050565b6000815461030781610493565b6103118186610446565b9450600182166000811461032c576001811461033d57610370565b60ff19831686528186019350610370565b61034685610415565b60005b8381101561036857815481890152600182019150602081019050610349565b838801955050505b50505092915050565b600061038582856102fa565b915061039182846102fa565b91508190509392505050565b600060208201905081810360008301526103b781846102c1565b905092915050565b60006103c96103da565b90506103d582826104c5565b919050565b6000604051905090565b600067ffffffffffffffff8211156103ff576103fe610525565b5b61040882610554565b9050602081019050919050565b60008190508160005260206000209050919050565b600081519050919050565b600082825260208201905092915050565b600081905092915050565b82818337600083830152505050565b60005b8381101561047e578082015181840152602081019050610463565b8381111561048d576000848401525b50505050565b600060028204905060018216806104ab57607f821691505b602082108114156104bf576104be6104f6565b5b50919050565b6104ce82610554565b810181811067ffffffffffffffff821117156104ed576104ec610525565b5b80604052505050565b7f4e487b7100000000000000000000000000000000000000000000000000000000600052602260045260246000fd5b7f4e487b7100000000000000000000000000000000000000000000000000000000600052604160045260246000fd5b6000601f19601f830116905091905056fea2646970667358221220dcb71c7c6989e87e4d6b394db1c152e3f249d786efc7164728ea5245972b1f9b64736f6c63430008040033",
  "linkReferences": {},
  "deployedLinkReferences": {}
}